{"abi":[{"type":"constructor","inputs":[],"stateMutability":"nonpayable"},{"type":"function","name":"authorizedController","inputs":[],"outputs":[{"name":"","type":"address","internalType":"address"}],"stateMutability":"view"},{"type":"function","name":"authorizedOracle","inputs":[],"outputs":[{"name":"","type":"address","internalType":"address"}],"stateMutability":"view"},{"type":"function","name":"controllerSet","inputs":[],"outputs":[{"name":"","type":"bool","internalType":"bool"}],"stateMutability":"view"},{"type":"function","name":"deregisterFlight","inputs":[{"name":"flightId","type":"string","internalType":"string"},{"name":"flightDate","type":"uint256","internalType":"uint256"}],"outputs":[],"stateMutability":"nonpayable"},{"type":"function","name":"getActiveFlights","inputs":[],"outputs":[{"name":"","type":"tuple[]","internalType":"struct FlightDataAggregator.ActiveFlight[]","components":[{"name":"flightId","type":"string","internalType":"string"},{"name":"flightDate","type":"uint256","internalType":"uint256"}]}],"stateMutability":"view"},{"type":"function","name":"getFlightStatus","inputs":[{"name":"flightId","type":"string","internalType":"string"},{"name":"flightDate","type":"uint256","internalType":"uint256"}],"outputs":[{"name":"","type":"uint8","internalType":"enum IOracleAggregator.FlightStatus"}],"stateMutability":"view"},{"type":"function","name":"oracleSet","inputs":[],"outputs":[{"name":"","type":"bool","internalType":"bool"}],"stateMutability":"view"},{"type":"function","name":"owner","inputs":[],"outputs":[{"name":"","type":"address","internalType":"address"}],"stateMutability":"view"},{"type":"function","name":"registerFlight","inputs":[{"name":"flightId","type":"string","internalType":"string"},{"name":"flightDate","type":"uint256","internalType":"uint256"}],"outputs":[],"stateMutability":"nonpayable"},{"type":"function","name":"setController","inputs":[{"name":"controller","type":"address","internalType":"address"}],"outputs":[],"stateMutability":"nonpayable"},{"type":"function","name":"setOracle","inputs":[{"name":"oracle","type":"address","internalType":"address"}],"outputs":[],"stateMutability":"nonpayable"},{"type":"function","name":"updateFlightStatus","inputs":[{"name":"flightId","type":"string","internalType":"string"},{"name":"flightDate","type":"uint256","internalType":"uint256"},{"name":"status","type":"uint8","internalType":"enum IOracleAggregator.FlightStatus"},{"name":"scheduledArrival","type":"uint256","internalType":"uint256"},{"name":"actualArrival","type":"uint256","internalType":"uint256"},{"name":"cancellationReason","type":"bytes32","internalType":"bytes32"}],"outputs":[],"stateMutability":"nonpayable"},{"type":"event","name":"ControllerSet","inputs":[{"name":"controller","type":"address","indexed":true,"internalType":"address"}],"anonymous":false},{"type":"event","name":"FlightDeregistered","inputs":[{"name":"flightId","type":"string","indexed":false,"internalType":"string"},{"name":"flightDate","type":"uint256","indexed":true,"internalType":"uint256"},{"name":"blockTimestamp","type":"uint256","indexed":false,"internalType":"uint256"}],"anonymous":false},{"type":"event","name":"FlightRegistered","inputs":[{"name":"flightId","type":"string","indexed":false,"internalType":"string"},{"name":"flightDate","type":"uint256","indexed":true,"internalType":"uint256"},{"name":"blockTimestamp","type":"uint256","indexed":false,"internalType":"uint256"}],"anonymous":false},{"type":"event","name":"FlightStatusUpdated","inputs":[{"name":"flightId","type":"string","indexed":false,"internalType":"string"},{"name":"flightDate","type":"uint256","indexed":true,"internalType":"uint256"},{"name":"status","type":"uint8","indexed":false,"internalType":"enum IOracleAggregator.FlightStatus"},{"name":"scheduledArrival","type":"uint256","indexed":false,"internalType":"uint256"},{"name":"actualArrival","type":"uint256","indexed":false,"internalType":"uint256"},{"name":"delayMinutes","type":"uint256","indexed":false,"internalType":"uint256"},{"name":"blockTimestamp","type":"uint256","indexed":false,"internalType":"uint256"}],"anonymous":false},{"type":"event","name":"OracleSet","inputs":[{"name":"oracle","type":"address","indexed":true,"internalType":"address"}],"anonymous":false},{"type":"error","name":"ControllerAlreadySet","inputs":[]},{"type":"error","name":"FlightAlreadyRegistered","inputs":[{"name":"flightId","type":"string","internalType":"string"},{"name":"flightDate","type":"uint256","internalType":"uint256"}]},{"type":"error","name":"FlightNotActive","inputs":[{"name":"flightId","type":"string","internalType":"string"},{"name":"flightDate","type":"uint256","internalType":"uint256"}]},{"type":"error","name":"FlightNotFound","inputs":[{"name":"flightId","type":"string","internalType":"string"},{"name":"flightDate","type":"uint256","internalType":"uint256"}]},{"type":"error","name":"NotController","inputs":[]},{"type":"error","name":"NotOracle","inputs":[]},{"type":"error","name":"NotOwner","inputs":[]},{"type":"error","name":"OracleAlreadySet","inputs":[]},{"type":"error","name":"ZeroAddress","inputs":[]}],"bytecode":{"object":"0x6080604052348015600e575f80fd5b50335f806101000a81548173ffffffffffffffffffffffffffffffffffffffff021916908373ffffffffffffffffffffffffffffffffffffffff1602179055506119a18061005b5f395ff3fe608060405234801561000f575f80fd5b50600436106100b2575f3560e01c80637adbf9731161006f5780637adbf973146101645780638da5cb5b1461018057806392eefe9b1461019e578063ab4a80c8146101ba578063dff7be1d146101ea578063edb3b27a14610208576100b2565b806302072579146100b65780631ca239a7146100d457806339cfc995146100f05780633e706adf1461010c57806354bede8d1461012857806357b2120f14610146575b5f80fd5b6100be610226565b6040516100cb9190610e0d565b60405180910390f35b6100ee60048036038101906100e99190610ec2565b610239565b005b61010a60048036038101906101059190610ec2565b61044e565b005b61012660048036038101906101219190610f75565b610627565b005b6101306107eb565b60405161013d919061105e565b60405180910390f35b61014e610810565b60405161015b919061105e565b60405180910390f35b61017e600480360381019061017991906110a1565b610835565b005b6101886109a4565b604051610195919061105e565b60405180910390f35b6101b860048036038101906101b391906110a1565b6109c7565b005b6101d460048036038101906101cf9190610ec2565b610b36565b6040516101e1919061113f565b60405180910390f35b6101f2610bc9565b6040516101ff91906112cc565b60405180910390f35b610210610d3a565b60405161021d9190610e0d565b60405180910390f35b600160149054906101000a900460ff1681565b5f610245848484610d4d565b90505f60045f8381526020019081526020015f2054036102a0578383836040517fb8c5255e00000000000000000000000000000000000000000000000000000000815260040161029793929190611345565b60405180910390fd5b5f600160045f8481526020019081526020015f20546102bf91906113a2565b90505f60016005805490506102d491906113a2565b9050808214610342575f600582815481106102f2576102f16113d5565b5b905f5260205f20015490508060058481548110610312576103116113d5565b5b905f5260205f20018190555060018361032b9190611402565b60045f8381526020019081526020015f2081905550505b600580548061035457610353611435565b5b600190038181905f5260205f20015f9055905560045f8481526020019081526020015f205f905560065f8481526020019081526020015f205f8082015f61039b9190610d82565b600182015f9055505060035f8481526020019081526020015f205f8082015f6103c49190610d82565b600182015f9055600282015f9055600382015f9055600482015f9055600582015f6101000a81549060ff0219169055600682015f9055600782015f9055600882015f90555050837faaeee4ab8fc9f06c204409c34f57f2ff869857389f9df8d7f95a1534711ab85587874260405161043e93929190611345565b60405180910390a2505050505050565b5f61045a848484610d4d565b90505f60045f8381526020019081526020015f2054146104b5578383836040517fd91bb9fd0000000000000000000000000000000000000000000000000000000081526004016104ac93929190611345565b60405180910390fd5b5f60035f8381526020019081526020015f2090508484825f0191826104db929190611693565b508281600101819055505f816005015f6101000a81548160ff0219169083600381111561050b5761050a6110cc565b5b0217905550428160070181905550600582908060018154018082558091505060019003905f5260205f20015f909190919091505560058054905060045f8481526020019081526020015f2081905550604051806040016040528086868080601f0160208091040260200160405190810160405280939291908181526020018383808284375f81840152601f19601f8201169050808301925050505050505081526020018481525060065f8481526020019081526020015f205f820151815f0190816105d69190611760565b5060208201518160010155905050827f24ae07ace7a269b266d392a62e5d38646aee329d3eb15b136d4f9226da1ac12286864260405161061893929190611345565b60405180910390a25050505050565b5f610633888888610d4d565b90505f60045f8381526020019081526020015f20540361068e578787876040517fb8c5255e00000000000000000000000000000000000000000000000000000000815260040161068593929190611345565b60405180910390fd5b5f60035f8381526020019081526020015f2090505f85141580156106b557505f8160020154145b156106c4578481600201819055505b5f84141580156106d757505f8160030154145b15610727578381600301819055505f8160020154141580156106fc5750806002015484115b1561072657603c81600201548561071391906113a2565b61071d919061185c565b81600401819055505b5b60038081111561073a576107396110cc565b5b86600381111561074d5761074c6110cc565b5b0361075c578281600601819055505b85816005015f6101000a81548160ff02191690836003811115610782576107816110cc565b5b0217905550428160080181905550867f57e68c82e91a03bdf8507d6c68b4643974b6c9b2417dce00c8c441ba4cd6711f8a8a89856002015486600301548760040154426040516107d8979695949392919061188c565b60405180910390a2505050505050505050565b60025f9054906101000a900473ffffffffffffffffffffffffffffffffffffffff1681565b60015f9054906101000a900473ffffffffffffffffffffffffffffffffffffffff1681565b5f8054906101000a900473ffffffffffffffffffffffffffffffffffffffff1673ffffffffffffffffffffffffffffffffffffffff163373ffffffffffffffffffffffffffffffffffffffff16146108b9576040517f30cd747100000000000000000000000000000000000000000000000000000000815260040160405180910390fd5b5f73ffffffffffffffffffffffffffffffffffffffff168173ffffffffffffffffffffffffffffffffffffffff160361091e576040517fd92e233d00000000000000000000000000000000000000000000000000000000815260040160405180910390fd5b8060025f6101000a81548173ffffffffffffffffffffffffffffffffffffffff021916908373ffffffffffffffffffffffffffffffffffffffff1602179055508073ffffffffffffffffffffffffffffffffffffffff167f3f32684a32a11dabdbb8c0177de80aa3ae36a004d75210335b49e544e48cd0aa60405160405180910390a250565b5f8054906101000a900473ffffffffffffffffffffffffffffffffffffffff1681565b5f8054906101000a900473ffffffffffffffffffffffffffffffffffffffff1673ffffffffffffffffffffffffffffffffffffffff163373ffffffffffffffffffffffffffffffffffffffff1614610a4b576040517f30cd747100000000000000000000000000000000000000000000000000000000815260040160405180910390fd5b5f73ffffffffffffffffffffffffffffffffffffffff168173ffffffffffffffffffffffffffffffffffffffff1603610ab0576040517fd92e233d00000000000000000000000000000000000000000000000000000000815260040160405180910390fd5b8060015f6101000a81548173ffffffffffffffffffffffffffffffffffffffff021916908373ffffffffffffffffffffffffffffffffffffffff1602179055508073ffffffffffffffffffffffffffffffffffffffff167f79f74fd5964b6943d8a1865abfb7f668c92fa3f32c0a2e3195da7d0946703ad760405160405180910390a250565b5f80610b43858585610d4d565b90505f60045f8381526020019081526020015f205403610b9e578484846040517f547ed7f2000000000000000000000000000000000000000000000000000000008152600401610b9593929190611345565b60405180910390fd5b60035f8281526020019081526020015f206005015f9054906101000a900460ff169150509392505050565b60605f60058054905090505f8167ffffffffffffffff811115610bef57610bee61146c565b5b604051908082528060200260200182016040528015610c2857816020015b610c15610dbf565b815260200190600190039081610c0d5790505b5090505f5b82811015610d315760065f60058381548110610c4c57610c4b6113d5565b5b905f5260205f20015481526020019081526020015f206040518060400160405290815f82018054610c7c906114c6565b80601f0160208091040260200160405190810160405280929190818152602001828054610ca8906114c6565b8015610cf35780601f10610cca57610100808354040283529160200191610cf3565b820191905f5260205f20905b815481529060010190602001808311610cd657829003601f168201915b50505050508152602001600182015481525050828281518110610d1957610d186113d5565b5b60200260200101819052508080600101915050610c2d565b50809250505090565b600260149054906101000a900460ff1681565b5f838383604051602001610d6393929190611942565b6040516020818303038152906040528051906020012090509392505050565b508054610d8e906114c6565b5f825580601f10610d9f5750610dbc565b601f0160209004905f5260205f2090810190610dbb9190610dd8565b5b50565b6040518060400160405280606081526020015f81525090565b5b80821115610def575f815f905550600101610dd9565b5090565b5f8115159050919050565b610e0781610df3565b82525050565b5f602082019050610e205f830184610dfe565b92915050565b5f80fd5b5f80fd5b5f80fd5b5f80fd5b5f80fd5b5f8083601f840112610e4f57610e4e610e2e565b5b8235905067ffffffffffffffff811115610e6c57610e6b610e32565b5b602083019150836001820283011115610e8857610e87610e36565b5b9250929050565b5f819050919050565b610ea181610e8f565b8114610eab575f80fd5b50565b5f81359050610ebc81610e98565b92915050565b5f805f60408486031215610ed957610ed8610e26565b5b5f84013567ffffffffffffffff811115610ef657610ef5610e2a565b5b610f0286828701610e3a565b93509350506020610f1586828701610eae565b9150509250925092565b60048110610f2b575f80fd5b50565b5f81359050610f3c81610f1f565b92915050565b5f819050919050565b610f5481610f42565b8114610f5e575f80fd5b50565b5f81359050610f6f81610f4b565b92915050565b5f805f805f805f60c0888a031215610f9057610f8f610e26565b5b5f88013567ffffffffffffffff811115610fad57610fac610e2a565b5b610fb98a828b01610e3a565b97509750506020610fcc8a828b01610eae565b9550506040610fdd8a828b01610f2e565b9450506060610fee8a828b01610eae565b9350506080610fff8a828b01610eae565b92505060a06110108a828b01610f61565b91505092959891949750929550565b5f73ffffffffffffffffffffffffffffffffffffffff82169050919050565b5f6110488261101f565b9050919050565b6110588161103e565b82525050565b5f6020820190506110715f83018461104f565b92915050565b6110808161103e565b811461108a575f80fd5b50565b5f8135905061109b81611077565b92915050565b5f602082840312156110b6576110b5610e26565b5b5f6110c38482850161108d565b91505092915050565b7f4e487b71000000000000000000000000000000000000000000000000000000005f52602160045260245ffd5b6004811061110a576111096110cc565b5b50565b5f81905061111a826110f9565b919050565b5f6111298261110d565b9050919050565b6111398161111f565b82525050565b5f6020820190506111525f830184611130565b92915050565b5f81519050919050565b5f82825260208201905092915050565b5f819050602082019050919050565b5f81519050919050565b5f82825260208201905092915050565b8281835e5f83830152505050565b5f601f19601f8301169050919050565b5f6111c382611181565b6111cd818561118b565b93506111dd81856020860161119b565b6111e6816111a9565b840191505092915050565b6111fa81610e8f565b82525050565b5f604083015f8301518482035f86015261121a82826111b9565b915050602083015161122f60208601826111f1565b508091505092915050565b5f6112458383611200565b905092915050565b5f602082019050919050565b5f61126382611158565b61126d8185611162565b93508360208202850161127f85611172565b805f5b858110156112ba578484038952815161129b858261123a565b94506112a68361124d565b925060208a01995050600181019050611282565b50829750879550505050505092915050565b5f6020820190508181035f8301526112e48184611259565b905092915050565b5f82825260208201905092915050565b828183375f83830152505050565b5f61131583856112ec565b93506113228385846112fc565b61132b836111a9565b840190509392505050565b61133f81610e8f565b82525050565b5f6040820190508181035f83015261135e81858761130a565b905061136d6020830184611336565b949350505050565b7f4e487b71000000000000000000000000000000000000000000000000000000005f52601160045260245ffd5b5f6113ac82610e8f565b91506113b783610e8f565b92508282039050818111156113cf576113ce611375565b5b92915050565b7f4e487b71000000000000000000000000000000000000000000000000000000005f52603260045260245ffd5b5f61140c82610e8f565b915061141783610e8f565b925082820190508082111561142f5761142e611375565b5b92915050565b7f4e487b71000000000000000000000000000000000000000000000000000000005f52603160045260245ffd5b5f82905092915050565b7f4e487b71000000000000000000000000000000000000000000000000000000005f52604160045260245ffd5b7f4e487b71000000000000000000000000000000000000000000000000000000005f52602260045260245ffd5b5f60028204905060018216806114dd57607f821691505b6020821081036114f0576114ef611499565b5b50919050565b5f819050815f5260205f209050919050565b5f6020601f8301049050919050565b5f82821b905092915050565b5f600883026115527fffffffffffffffffffffffffffffffffffffffffffffffffffffffffffffffff82611517565b61155c8683611517565b95508019841693508086168417925050509392505050565b5f819050919050565b5f61159761159261158d84610e8f565b611574565b610e8f565b9050919050565b5f819050919050565b6115b08361157d565b6115c46115bc8261159e565b848454611523565b825550505050565b5f90565b6115d86115cc565b6115e38184846115a7565b505050565b5b81811015611606576115fb5f826115d0565b6001810190506115e9565b5050565b601f82111561164b5761161c816114f6565b61162584611508565b81016020851015611634578190505b61164861164085611508565b8301826115e8565b50505b505050565b5f82821c905092915050565b5f61166b5f1984600802611650565b1980831691505092915050565b5f611683838361165c565b9150826002028217905092915050565b61169d8383611462565b67ffffffffffffffff8111156116b6576116b561146c565b5b6116c082546114c6565b6116cb82828561160a565b5f601f8311600181146116f8575f84156116e6578287013590505b6116f08582611678565b865550611757565b601f198416611706866114f6565b5f5b8281101561172d57848901358255600182019150602085019450602081019050611708565b8683101561174a5784890135611746601f89168261165c565b8355505b6001600288020188555050505b50505050505050565b61176982611181565b67ffffffffffffffff8111156117825761178161146c565b5b61178c82546114c6565b61179782828561160a565b5f60209050601f8311600181146117c8575f84156117b6578287015190505b6117c08582611678565b865550611827565b601f1984166117d6866114f6565b5f5b828110156117fd578489015182556001820191506020850194506020810190506117d8565b8683101561181a5784890151611816601f89168261165c565b8355505b6001600288020188555050505b505050505050565b7f4e487b71000000000000000000000000000000000000000000000000000000005f52601260045260245ffd5b5f61186682610e8f565b915061187183610e8f565b9250826118815761188061182f565b5b828204905092915050565b5f60c0820190508181035f8301526118a581898b61130a565b90506118b46020830188611130565b6118c16040830187611336565b6118ce6060830186611336565b6118db6080830185611336565b6118e860a0830184611336565b98975050505050505050565b5f81905092915050565b5f61190983856118f4565b93506119168385846112fc565b82840190509392505050565b5f819050919050565b61193c61193782610e8f565b611922565b82525050565b5f61194e8285876118fe565b915061195a828461192b565b60208201915081905094935050505056fea26469706673582212200b8e3277e85a01bb732c87bd06117945761e3ae19b801292c7d288ccdceb6a1764736f6c634300081a0033","linkReferences":{}},"methodIdentifiers":{"authorizedController()":"57b2120f","authorizedOracle()":"54bede8d","controllerSet()":"02072579","deregisterFlight(string,uint256)":"1ca239a7","getActiveFlights()":"dff7be1d","getFlightStatus(string,uint256)":"ab4a80c8","oracleSet()":"edb3b27a","owner()":"8da5cb5b","registerFlight(string,uint256)":"39cfc995","setController(address)":"92eefe9b","setOracle(address)":"7adbf973","updateFlightStatus(string,uint256,uint8,uint256,uint256,bytes32)":"3e706adf"},"id":0}