{"abi":[{"type":"constructor","inputs":[],"stateMutability":"nonpayable"},{"type":"function","name":"authorizedController","inputs":[],"outputs":[{"name":"","type":"address","internalType":"address"}],"stateMutability":"view"},{"type":"function","name":"authorizedOracle","inputs":[],"outputs":[{"name":"","type":"address","internalType":"address"}],"stateMutability":"view"},{"type":"function","name":"controllerSet","inputs":[],"outputs":[{"name":"","type":"bool","internalType":"bool"}],"stateMutability":"view"},{"type":"function","name":"deregisterFlight","inputs":[{"name":"flightId","type":"string","internalType":"string"},{"name":"flightDate","type":"uint256","internalType":"uint256"}],"outputs":[],"stateMutability":"nonpayable"},{"type":"function","name":"getActiveFlights","inputs":[],"outputs":[{"name":"","type":"tuple[]","internalType":"struct FlightDataAggregator.ActiveFlight[]","components":[{"name":"flightId","type":"string","internalType":"string"},{"name":"flightDate","type":"uint256","internalType":"uint256"}]}],"stateMutability":"view"},{"type":"function","name":"getFlightStatus","inputs":[{"name":"flightId","type":"string","internalType":"string"},{"name":"flightDate","type":"uint256","internalType":"uint256"}],"outputs":[{"name":"","type":"uint8","internalType":"enum IOracleAggregator.FlightStatus"}],"stateMutability":"view"},{"type":"function","name":"oracleSet","inputs":[],"outputs":[{"name":"","type":"bool","internalType":"bool"}],"stateMutability":"view"},{"type":"function","name":"owner","inputs":[],"outputs":[{"name":"","type":"address","internalType":"address"}],"stateMutability":"view"},{"type":"function","name":"registerFlight","inputs":[{"name":"flightId","type":"string","internalType":"string"},{"name":"flightDate","type":"uint256","internalType":"uint256"}],"outputs":[],"stateMutability":"nonpayable"},{"type":"function","name":"setController","inputs":[{"name":"controller","type":"address","internalType":"address"}],"outputs":[],"stateMutability":"nonpayable"},{"type":"function","name":"setOracle","inputs":[{"name":"oracle","type":"address","internalType":"address"}],"outputs":[],"stateMutability":"nonpayable"},{"type":"function","name":"updateFlightStatus","inputs":[{"name":"flightId","type":"string","internalType":"string"},{"name":"flightDate","type":"uint256","internalType":"uint256"},{"name":"status","type":"uint8","internalType":"enum IOracleAggregator.FlightStatus"},{"name":"scheduledArrival","type":"uint256","internalType":"uint256"},{"name":"actualArrival","type":"uint256","internalType":"uint256"},{"name":"cancellationReason","type":"bytes32","internalType":"bytes32"}],"outputs":[],"stateMutability":"nonpayable"},{"type":"event","name":"ControllerSet","inputs":[{"name":"controller","type":"address","indexed":true,"internalType":"address"}],"anonymous":false},{"type":"event","name":"FlightDeregistered","inputs":[{"name":"flightId","type":"string","indexed":false,"internalType":"string"},{"name":"flightDate","type":"uint256","indexed":true,"internalType":"uint256"},{"name":"blockTimestamp","type":"uint256","indexed":false,"internalType":"uint256"}],"anonymous":false},{"type":"event","name":"FlightRegistered","inputs":[{"name":"flightId","type":"string","indexed":false,"internalType":"string"},{"name":"flightDate","type":"uint256","indexed":true,"internalType":"uint256"},{"name":"blockTimestamp","type":"uint256","indexed":false,"internalType":"uint256"}],"anonymous":false},{"type":"event","name":"FlightStatusUpdated","inputs":[{"name":"flightId","type":"string","indexed":false,"internalType":"string"},{"name":"flightDate","type":"uint256","indexed":true,"internalType":"uint256"},{"name":"status","type":"uint8","indexed":false,"internalType":"enum IOracleAggregator.FlightStatus"},{"name":"scheduledArrival","type":"uint256","indexed":false,"internalType":"uint256"},{"name":"actualArrival","type":"uint256","indexed":false,"internalType":"uint256"},{"name":"delayMinutes","type":"uint256","indexed":false,"internalType":"uint256"},{"name":"blockTimestamp","type":"uint256","indexed":false,"internalType":"uint256"}],"anonymous":false},{"type":"event","name":"OracleSet","inputs":[{"name":"oracle","type":"address","indexed":true,"internalType":"address"}],"anonymous":false},{"type":"error","name":"ControllerAlreadySet","inputs":[]},{"type":"error","name":"FlightAlreadyRegistered","inputs":[{"name":"flightId","type":"string","internalType":"string"},{"name":"flightDate","type":"uint256","internalType":"uint256"}]},{"type":"error","name":"FlightNotActive","inputs":[{"name":"flightId","type":"string","internalType":"string"},{"name":"flightDate","type":"uint256","internalType":"uint256"}]},{"type":"error","name":"FlightNotFound","inputs":[{"name":"flightId","type":"string","internalType":"string"},{"name":"flightDate","type":"uint256","internalType":"uint256"}]},{"type":"error","name":"NotController","inputs":[]},{"type":"error","name":"NotOracle","inputs":[]},{"type":"error","name":"NotOwner","inputs":[]},{"type":"error","name":"OracleAlreadySet","inputs":[]},{"type":"error","name":"ZeroAddress","inputs":[]}],"bytecode":{"object":"0x6080604052348015600e575f80fd5b50335f806101000a81548173ffffffffffffffffffffffffffffffffffffffff021916908373ffffffffffffffffffffffffffffffffffffffff160217905550611bf68061005b5f395ff3fe608060405234801561000f575f80fd5b50600436106100b2575f3560e01c80637adbf9731161006f5780637adbf973146101645780638da5cb5b1461018057806392eefe9b1461019e578063ab4a80c8146101ba578063dff7be1d146101ea578063edb3b27a14610208576100b2565b806302072579146100b65780631ca239a7146100d457806339cfc995146100f05780633e706adf1461010c57806354bede8d1461012857806357b2120f14610146575b5f80fd5b6100be610226565b6040516100cb9190611062565b60405180910390f35b6100ee60048036038101906100e99190611117565b610239565b005b61010a60048036038101906101059190611117565b6104d4565b005b610126600480360381019061012191906111ca565b610733565b005b61013061097d565b60405161013d91906112b3565b60405180910390f35b61014e6109a2565b60405161015b91906112b3565b60405180910390f35b61017e600480360381019061017991906112f6565b6109c7565b005b610188610b98565b60405161019591906112b3565b60405180910390f35b6101b860048036038101906101b391906112f6565b610bbb565b005b6101d460048036038101906101cf9190611117565b610d8b565b6040516101e19190611394565b60405180910390f35b6101f2610e1e565b6040516101ff9190611521565b60405180910390f35b610210610f8f565b60405161021d9190611062565b60405180910390f35b600160149054906101000a900460ff1681565b60015f9054906101000a900473ffffffffffffffffffffffffffffffffffffffff1673ffffffffffffffffffffffffffffffffffffffff163373ffffffffffffffffffffffffffffffffffffffff16146102bf576040517f23019e6700000000000000000000000000000000000000000000000000000000815260040160405180910390fd5b5f6102cb848484610fa2565b90505f60045f8381526020019081526020015f205403610326578383836040517fb8c5255e00000000000000000000000000000000000000000000000000000000815260040161031d9392919061159a565b60405180910390fd5b5f600160045f8481526020019081526020015f205461034591906115f7565b90505f600160058054905061035a91906115f7565b90508082146103c8575f600582815481106103785761037761162a565b5b905f5260205f200154905080600584815481106103985761039761162a565b5b905f5260205f2001819055506001836103b19190611657565b60045f8381526020019081526020015f2081905550505b60058054806103da576103d961168a565b5b600190038181905f5260205f20015f9055905560045f8481526020019081526020015f205f905560065f8481526020019081526020015f205f8082015f6104219190610fd7565b600182015f9055505060035f8481526020019081526020015f205f8082015f61044a9190610fd7565b600182015f9055600282015f9055600382015f9055600482015f9055600582015f6101000a81549060ff0219169055600682015f9055600782015f9055600882015f90555050837faaeee4ab8fc9f06c204409c34f57f2ff869857389f9df8d7f95a1534711ab8558787426040516104c49392919061159a565b60405180910390a2505050505050565b60015f9054906101000a900473ffffffffffffffffffffffffffffffffffffffff1673ffffffffffffffffffffffffffffffffffffffff163373ffffffffffffffffffffffffffffffffffffffff161461055a576040517f23019e6700000000000000000000000000000000000000000000000000000000815260040160405180910390fd5b5f610566848484610fa2565b90505f60045f8381526020019081526020015f2054146105c1578383836040517fd91bb9fd0000000000000000000000000000000000000000000000000000000081526004016105b89392919061159a565b60405180910390fd5b5f60035f8381526020019081526020015f2090508484825f0191826105e79291906118e8565b508281600101819055505f816005015f6101000a81548160ff0219169083600381111561061757610616611321565b5b0217905550428160070181905550600582908060018154018082558091505060019003905f5260205f20015f909190919091505560058054905060045f8481526020019081526020015f2081905550604051806040016040528086868080601f0160208091040260200160405190810160405280939291908181526020018383808284375f81840152601f19601f8201169050808301925050505050505081526020018481525060065f8481526020019081526020015f205f820151815f0190816106e291906119b5565b5060208201518160010155905050827f24ae07ace7a269b266d392a62e5d38646aee329d3eb15b136d4f9226da1ac1228686426040516107249392919061159a565b60405180910390a25050505050565b60025f9054906101000a900473ffffffffffffffffffffffffffffffffffffffff1673ffffffffffffffffffffffffffffffffffffffff163373ffffffffffffffffffffffffffffffffffffffff16146107b9576040517f1bc2178f00000000000000000000000000000000000000000000000000000000815260040160405180910390fd5b5f6107c5888888610fa2565b90505f60045f8381526020019081526020015f205403610820578787876040517fb8c5255e0000000000000000000000000000000000000000000000000000000081526004016108179392919061159a565b60405180910390fd5b5f60035f8381526020019081526020015f2090505f851415801561084757505f8160020154145b15610856578481600201819055505b5f841415801561086957505f8160030154145b156108b9578381600301819055505f81600201541415801561088e5750806002015484115b156108b857603c8160020154856108a591906115f7565b6108af9190611ab1565b81600401819055505b5b6003808111156108cc576108cb611321565b5b8660038111156108df576108de611321565b5b036108ee578281600601819055505b85816005015f6101000a81548160ff0219169083600381111561091457610913611321565b5b0217905550428160080181905550867f57e68c82e91a03bdf8507d6c68b4643974b6c9b2417dce00c8c441ba4cd6711f8a8a898560020154866003015487600401544260405161096a9796959493929190611ae1565b60405180910390a2505050505050505050565b60025f9054906101000a900473ffffffffffffffffffffffffffffffffffffffff1681565b60015f9054906101000a900473ffffffffffffffffffffffffffffffffffffffff1681565b5f8054906101000a900473ffffffffffffffffffffffffffffffffffffffff1673ffffffffffffffffffffffffffffffffffffffff163373ffffffffffffffffffffffffffffffffffffffff1614610a4b576040517f30cd747100000000000000000000000000000000000000000000000000000000815260040160405180910390fd5b600260149054906101000a900460ff1615610a92576040517f1f4276bf00000000000000000000000000000000000000000000000000000000815260040160405180910390fd5b5f73ffffffffffffffffffffffffffffffffffffffff168173ffffffffffffffffffffffffffffffffffffffff1603610af7576040517fd92e233d00000000000000000000000000000000000000000000000000000000815260040160405180910390fd5b8060025f6101000a81548173ffffffffffffffffffffffffffffffffffffffff021916908373ffffffffffffffffffffffffffffffffffffffff1602179055506001600260146101000a81548160ff0219169083151502179055508073ffffffffffffffffffffffffffffffffffffffff167f3f32684a32a11dabdbb8c0177de80aa3ae36a004d75210335b49e544e48cd0aa60405160405180910390a250565b5f8054906101000a900473ffffffffffffffffffffffffffffffffffffffff1681565b5f8054906101000a900473ffffffffffffffffffffffffffffffffffffffff1673ffffffffffffffffffffffffffffffffffffffff163373ffffffffffffffffffffffffffffffffffffffff1614610c3f576040517f30cd747100000000000000000000000000000000000000000000000000000000815260040160405180910390fd5b600160149054906101000a900460ff1615610c86576040517fca231c2300000000000000000000000000000000000000000000000000000000815260040160405180910390fd5b5f73ffffffffffffffffffffffffffffffffffffffff168173ffffffffffffffffffffffffffffffffffffffff1603610ceb576040517fd92e233d00000000000000000000000000000000000000000000000000000000815260040160405180910390fd5b8060015f6101000a81548173ffffffffffffffffffffffffffffffffffffffff021916908373ffffffffffffffffffffffffffffffffffffffff16021790555060018060146101000a81548160ff0219169083151502179055508073ffffffffffffffffffffffffffffffffffffffff167f79f74fd5964b6943d8a1865abfb7f668c92fa3f32c0a2e3195da7d0946703ad760405160405180910390a250565b5f80610d98858585610fa2565b90505f60045f8381526020019081526020015f205403610df3578484846040517f547ed7f2000000000000000000000000000000000000000000000000000000008152600401610dea9392919061159a565b60405180910390fd5b60035f8281526020019081526020015f206005015f9054906101000a900460ff169150509392505050565b60605f60058054905090505f8167ffffffffffffffff811115610e4457610e436116c1565b5b604051908082528060200260200182016040528015610e7d57816020015b610e6a611014565b815260200190600190039081610e625790505b5090505f5b82811015610f865760065f60058381548110610ea157610ea061162a565b5b905f5260205f20015481526020019081526020015f206040518060400160405290815f82018054610ed19061171b565b80601f0160208091040260200160405190810160405280929190818152602001828054610efd9061171b565b8015610f485780601f10610f1f57610100808354040283529160200191610f48565b820191905f5260205f20905b815481529060010190602001808311610f2b57829003601f168201915b50505050508152602001600182015481525050828281518110610f6e57610f6d61162a565b5b60200260200101819052508080600101915050610e82565b50809250505090565b600260149054906101000a900460ff1681565b5f838383604051602001610fb893929190611b97565b6040516020818303038152906040528051906020012090509392505050565b508054610fe39061171b565b5f825580601f10610ff45750611011565b601f0160209004905f5260205f2090810190611010919061102d565b5b50565b6040518060400160405280606081526020015f81525090565b5b80821115611044575f815f90555060010161102e565b5090565b5f8115159050919050565b61105c81611048565b82525050565b5f6020820190506110755f830184611053565b92915050565b5f80fd5b5f80fd5b5f80fd5b5f80fd5b5f80fd5b5f8083601f8401126110a4576110a3611083565b5b8235905067ffffffffffffffff8111156110c1576110c0611087565b5b6020830191508360018202830111156110dd576110dc61108b565b5b9250929050565b5f819050919050565b6110f6816110e4565b8114611100575f80fd5b50565b5f81359050611111816110ed565b92915050565b5f805f6040848603121561112e5761112d61107b565b5b5f84013567ffffffffffffffff81111561114b5761114a61107f565b5b6111578682870161108f565b9350935050602061116a86828701611103565b9150509250925092565b60048110611180575f80fd5b50565b5f8135905061119181611174565b92915050565b5f819050919050565b6111a981611197565b81146111b3575f80fd5b50565b5f813590506111c4816111a0565b92915050565b5f805f805f805f60c0888a0312156111e5576111e461107b565b5b5f88013567ffffffffffffffff8111156112025761120161107f565b5b61120e8a828b0161108f565b975097505060206112218a828b01611103565b95505060406112328a828b01611183565b94505060606112438a828b01611103565b93505060806112548a828b01611103565b92505060a06112658a828b016111b6565b91505092959891949750929550565b5f73ffffffffffffffffffffffffffffffffffffffff82169050919050565b5f61129d82611274565b9050919050565b6112ad81611293565b82525050565b5f6020820190506112c65f8301846112a4565b92915050565b6112d581611293565b81146112df575f80fd5b50565b5f813590506112f0816112cc565b92915050565b5f6020828403121561130b5761130a61107b565b5b5f611318848285016112e2565b91505092915050565b7f4e487b71000000000000000000000000000000000000000000000000000000005f52602160045260245ffd5b6004811061135f5761135e611321565b5b50565b5f81905061136f8261134e565b919050565b5f61137e82611362565b9050919050565b61138e81611374565b82525050565b5f6020820190506113a75f830184611385565b92915050565b5f81519050919050565b5f82825260208201905092915050565b5f819050602082019050919050565b5f81519050919050565b5f82825260208201905092915050565b8281835e5f83830152505050565b5f601f19601f8301169050919050565b5f611418826113d6565b61142281856113e0565b93506114328185602086016113f0565b61143b816113fe565b840191505092915050565b61144f816110e4565b82525050565b5f604083015f8301518482035f86015261146f828261140e565b91505060208301516114846020860182611446565b508091505092915050565b5f61149a8383611455565b905092915050565b5f602082019050919050565b5f6114b8826113ad565b6114c281856113b7565b9350836020820285016114d4856113c7565b805f5b8581101561150f57848403895281516114f0858261148f565b94506114fb836114a2565b925060208a019950506001810190506114d7565b50829750879550505050505092915050565b5f6020820190508181035f83015261153981846114ae565b905092915050565b5f82825260208201905092915050565b828183375f83830152505050565b5f61156a8385611541565b9350611577838584611551565b611580836113fe565b840190509392505050565b611594816110e4565b82525050565b5f6040820190508181035f8301526115b381858761155f565b90506115c2602083018461158b565b949350505050565b7f4e487b71000000000000000000000000000000000000000000000000000000005f52601160045260245ffd5b5f611601826110e4565b915061160c836110e4565b9250828203905081811115611624576116236115ca565b5b92915050565b7f4e487b71000000000000000000000000000000000000000000000000000000005f52603260045260245ffd5b5f611661826110e4565b915061166c836110e4565b9250828201905080821115611684576116836115ca565b5b92915050565b7f4e487b71000000000000000000000000000000000000000000000000000000005f52603160045260245ffd5b5f82905092915050565b7f4e487b71000000000000000000000000000000000000000000000000000000005f52604160045260245ffd5b7f4e487b71000000000000000000000000000000000000000000000000000000005f52602260045260245ffd5b5f600282049050600182168061173257607f821691505b602082108103611745576117446116ee565b5b50919050565b5f819050815f5260205f209050919050565b5f6020601f8301049050919050565b5f82821b905092915050565b5f600883026117a77fffffffffffffffffffffffffffffffffffffffffffffffffffffffffffffffff8261176c565b6117b1868361176c565b95508019841693508086168417925050509392505050565b5f819050919050565b5f6117ec6117e76117e2846110e4565b6117c9565b6110e4565b9050919050565b5f819050919050565b611805836117d2565b611819611811826117f3565b848454611778565b825550505050565b5f90565b61182d611821565b6118388184846117fc565b505050565b5b8181101561185b576118505f82611825565b60018101905061183e565b5050565b601f8211156118a0576118718161174b565b61187a8461175d565b81016020851015611889578190505b61189d6118958561175d565b83018261183d565b50505b505050565b5f82821c905092915050565b5f6118c05f19846008026118a5565b1980831691505092915050565b5f6118d883836118b1565b9150826002028217905092915050565b6118f283836116b7565b67ffffffffffffffff81111561190b5761190a6116c1565b5b611915825461171b565b61192082828561185f565b5f601f83116001811461194d575f841561193b578287013590505b61194585826118cd565b8655506119ac565b601f19841661195b8661174b565b5f5b828110156119825784890135825560018201915060208501945060208101905061195d565b8683101561199f578489013561199b601f8916826118b1565b8355505b6001600288020188555050505b50505050505050565b6119be826113d6565b67ffffffffffffffff8111156119d7576119d66116c1565b5b6119e1825461171b565b6119ec82828561185f565b5f60209050601f831160018114611a1d575f8415611a0b578287015190505b611a1585826118cd565b865550611a7c565b601f198416611a2b8661174b565b5f5b82811015611a5257848901518255600182019150602085019450602081019050611a2d565b86831015611a6f5784890151611a6b601f8916826118b1565b8355505b6001600288020188555050505b505050505050565b7f4e487b71000000000000000000000000000000000000000000000000000000005f52601260045260245ffd5b5f611abb826110e4565b9150611ac6836110e4565b925082611ad657611ad5611a84565b5b828204905092915050565b5f60c0820190508181035f830152611afa81898b61155f565b9050611b096020830188611385565b611b16604083018761158b565b611b23606083018661158b565b611b30608083018561158b565b611b3d60a083018461158b565b98975050505050505050565b5f81905092915050565b5f611b5e8385611b49565b9350611b6b838584611551565b82840190509392505050565b5f819050919050565b611b91611b8c826110e4565b611b77565b82525050565b5f611ba3828587611b53565b9150611baf8284611b80565b60208201915081905094935050505056fea2646970667358221220c16d33182faea0fd2248bc361d5958e85c298a4ee72949d51bf9758c4d21a12d64736f6c634300081a0033","linkReferences":{}},"methodIdentifiers":{"authorizedController()":"57b2120f","authorizedOracle()":"54bede8d","controllerSet()":"02072579","deregisterFlight(string,uint256)":"1ca239a7","getActiveFlights()":"dff7be1d","getFlightStatus(string,uint256)":"ab4a80c8","oracleSet()":"edb3b27a","owner()":"8da5cb5b","registerFlight(string,uint256)":"39cfc995","setController(address)":"92eefe9b","setOracle(address)":"7adbf973","updateFlightStatus(string,uint256,uint8,uint256,uint256,bytes32)":"3e706adf"},"id":0}